{
    "contractName": "Co",
    "abi": [
        {
            "inputs": [],
            "stateMutability": "nonpayable",
            "type": "constructor"
        },
        {
            "anonymous": false,
            "inputs": [
                {
                    "indexed": true,
                    "internalType": "address",
                    "name": "owner",
                    "type": "address"
                },
                {
                    "indexed": true,
                    "internalType": "address",
                    "name": "spender",
                    "type": "address"
                },
                {
                    "indexed": false,
                    "internalType": "uint256",
                    "name": "value",
                    "type": "uint256"
                }
            ],
            "name": "Approval",
            "type": "event"
        },
        {
            "anonymous": false,
            "inputs": [
                {
                    "indexed": true,
                    "internalType": "address",
                    "name": "previousOwner",
                    "type": "address"
                },
                {
                    "indexed": true,
                    "internalType": "address",
                    "name": "newOwner",
                    "type": "address"
                }
            ],
            "name": "OwnershipTransferred",
            "type": "event"
        },
        {
            "anonymous": false,
            "inputs": [
                {
                    "indexed": true,
                    "internalType": "address",
                    "name": "from",
                    "type": "address"
                },
                {
                    "indexed": true,
                    "internalType": "address",
                    "name": "to",
                    "type": "address"
                },
                {
                    "indexed": false,
                    "internalType": "uint256",
                    "name": "value",
                    "type": "uint256"
                }
            ],
            "name": "Transfer",
            "type": "event"
        },
        {
            "stateMutability": "payable",
            "type": "fallback"
        },
        {
            "inputs": [
                {
                    "internalType": "address",
                    "name": "owner",
                    "type": "address"
                },
                {
                    "internalType": "address",
                    "name": "spender",
                    "type": "address"
                }
            ],
            "name": "allowance",
            "outputs": [
                {
                    "internalType": "uint256",
                    "name": "",
                    "type": "uint256"
                }
            ],
            "stateMutability": "view",
            "type": "function"
        },
        {
            "inputs": [
                {
                    "internalType": "address",
                    "name": "spender",
                    "type": "address"
                },
                {
                    "internalType": "uint256",
                    "name": "amount",
                    "type": "uint256"
                }
            ],
            "name": "approve",
            "outputs": [
                {
                    "internalType": "bool",
                    "name": "",
                    "type": "bool"
                }
            ],
            "stateMutability": "nonpayable",
            "type": "function"
        },
        {
            "inputs": [
                {
                    "internalType": "address",
                    "name": "account",
                    "type": "address"
                }
            ],
            "name": "balanceOf",
            "outputs": [
                {
                    "internalType": "uint256",
                    "name": "",
                    "type": "uint256"
                }
            ],
            "stateMutability": "view",
            "type": "function"
        },
        {
            "inputs": [
                {
                    "internalType": "address",
                    "name": "account",
                    "type": "address"
                },
                {
                    "internalType": "uint256",
                    "name": "nCoTokens",
                    "type": "uint256"
                }
            ],
            "name": "burn",
            "outputs": [],
            "stateMutability": "payable",
            "type": "function"
        },
        {
            "inputs": [
                {
                    "internalType": "uint256",
                    "name": "nCoTokens",
                    "type": "uint256"
                }
            ],
            "name": "buyPrice",
            "outputs": [
                {
                    "internalType": "uint256",
                    "name": "",
                    "type": "uint256"
                }
            ],
            "stateMutability": "view",
            "type": "function"
        },
        {
            "inputs": [
                {
                    "internalType": "address",
                    "name": "spender",
                    "type": "address"
                },
                {
                    "internalType": "uint256",
                    "name": "subtractedValue",
                    "type": "uint256"
                }
            ],
            "name": "decreaseAllowance",
            "outputs": [
                {
                    "internalType": "bool",
                    "name": "",
                    "type": "bool"
                }
            ],
            "stateMutability": "nonpayable",
            "type": "function"
        },
        {
            "inputs": [],
            "name": "destroy",
            "outputs": [],
            "stateMutability": "nonpayable",
            "type": "function"
        },
        {
            "inputs": [
                {
                    "internalType": "address",
                    "name": "spender",
                    "type": "address"
                },
                {
                    "internalType": "uint256",
                    "name": "addedValue",
                    "type": "uint256"
                }
            ],
            "name": "increaseAllowance",
            "outputs": [
                {
                    "internalType": "bool",
                    "name": "",
                    "type": "bool"
                }
            ],
            "stateMutability": "nonpayable",
            "type": "function"
        },
        {
            "inputs": [],
            "name": "isOwner",
            "outputs": [
                {
                    "internalType": "bool",
                    "name": "",
                    "type": "bool"
                }
            ],
            "stateMutability": "view",
            "type": "function"
        },
        {
            "inputs": [
                {
                    "internalType": "address",
                    "name": "account",
                    "type": "address"
                },
                {
                    "internalType": "uint256",
                    "name": "nCoTokens",
                    "type": "uint256"
                }
            ],
            "name": "mint",
            "outputs": [],
            "stateMutability": "payable",
            "type": "function"
        },
        {
            "inputs": [
                {
                    "internalType": "address",
                    "name": "account",
                    "type": "address"
                },
                {
                    "internalType": "uint256",
                    "name": "nCoTokens",
                    "type": "uint256"
                }
            ],
            "name": "mintedCoins",
            "outputs": [],
            "stateMutability": "nonpayable",
            "type": "function"
        },
        {
            "inputs": [],
            "name": "mintedTokens",
            "outputs": [
                {
                    "internalType": "uint256",
                    "name": "",
                    "type": "uint256"
                }
            ],
            "stateMutability": "view",
            "type": "function"
        },
        {
            "inputs": [],
            "name": "minter",
            "outputs": [
                {
                    "internalType": "address payable",
                    "name": "",
                    "type": "address"
                }
            ],
            "stateMutability": "view",
            "type": "function"
        },
        {
            "inputs": [],
            "name": "owner",
            "outputs": [
                {
                    "internalType": "address",
                    "name": "",
                    "type": "address"
                }
            ],
            "stateMutability": "view",
            "type": "function"
        },
        {
            "inputs": [],
            "name": "renounceOwnership",
            "outputs": [],
            "stateMutability": "nonpayable",
            "type": "function"
        },
        {
            "inputs": [
                {
                    "internalType": "uint256",
                    "name": "nCoTokens",
                    "type": "uint256"
                }
            ],
            "name": "sellPrice",
            "outputs": [
                {
                    "internalType": "uint256",
                    "name": "",
                    "type": "uint256"
                }
            ],
            "stateMutability": "pure",
            "type": "function"
        },
        {
            "inputs": [],
            "name": "totalSupply",
            "outputs": [
                {
                    "internalType": "uint256",
                    "name": "",
                    "type": "uint256"
                }
            ],
            "stateMutability": "view",
            "type": "function"
        },
        {
            "inputs": [
                {
                    "internalType": "address",
                    "name": "recipient",
                    "type": "address"
                },
                {
                    "internalType": "uint256",
                    "name": "amount",
                    "type": "uint256"
                }
            ],
            "name": "transfer",
            "outputs": [
                {
                    "internalType": "bool",
                    "name": "",
                    "type": "bool"
                }
            ],
            "stateMutability": "nonpayable",
            "type": "function"
        },
        {
            "inputs": [
                {
                    "internalType": "address",
                    "name": "sender",
                    "type": "address"
                },
                {
                    "internalType": "address",
                    "name": "recipient",
                    "type": "address"
                },
                {
                    "internalType": "uint256",
                    "name": "amount",
                    "type": "uint256"
                }
            ],
            "name": "transferFrom",
            "outputs": [
                {
                    "internalType": "bool",
                    "name": "",
                    "type": "bool"
                }
            ],
            "stateMutability": "nonpayable",
            "type": "function"
        },
        {
            "inputs": [
                {
                    "internalType": "address",
                    "name": "newOwner",
                    "type": "address"
                }
            ],
            "name": "transferOwnership",
            "outputs": [],
            "stateMutability": "nonpayable",
            "type": "function"
        },
        {
            "stateMutability": "payable",
            "type": "receive"
        }
    ],
    "bytecode": "6080604052600060055534801561001557600080fd5b5060006100296001600160e01b0361008a16565b600080546001600160a01b0319166001600160a01b0383169081178255604051929350917f8be0079c531659141344cd1fd0a4f28419497f9722a3daafe3b4186f6b6457e0908290a350600480546001600160a01b0319163317905561008e565b3390565b6112ee8061009d6000396000f3fe6080604052600436106101235760003560e01c80638d75fe05116100a0578063a457c2d711610064578063a457c2d7146103a4578063a9059cbb146103dd578063c4dbf62214610416578063dd62ed3e14610440578063f2fde38b1461047b5761012a565b80638d75fe051461030f5780638da5cb5b146103245780638f32d59b14610339578063911e279c1461034e5780639dc29fac146103785761012a565b806340c10f19116100e757806340c10f191461024d57806357d6da5f1461027957806370a08231146102b2578063715018a6146102e557806383197ef0146102fa5761012a565b8063075461721461012c578063095ea7b31461015d57806318160ddd146101aa57806323b872dd146101d157806339509351146102145761012a565b3661012a57005b005b34801561013857600080fd5b506101416104ae565b604080516001600160a01b039092168252519081900360200190f35b34801561016957600080fd5b506101966004803603604081101561018057600080fd5b506001600160a01b0381351690602001356104bd565b604080519115158252519081900360200190f35b3480156101b657600080fd5b506101bf6104da565b60408051918252519081900360200190f35b3480156101dd57600080fd5b50610196600480360360608110156101f457600080fd5b506001600160a01b038135811691602081013590911690604001356104e0565b34801561022057600080fd5b506101966004803603604081101561023757600080fd5b506001600160a01b03813516906020013561056d565b61012a6004803603604081101561026357600080fd5b506001600160a01b0381351690602001356105c1565b34801561028557600080fd5b5061012a6004803603604081101561029c57600080fd5b506001600160a01b0381351690602001356106af565b3480156102be57600080fd5b506101bf600480360360208110156102d557600080fd5b50356001600160a01b03166106bd565b3480156102f157600080fd5b5061012a6106d8565b34801561030657600080fd5b5061012a610769565b34801561031b57600080fd5b506101bf610811565b34801561033057600080fd5b50610141610817565b34801561034557600080fd5b50610196610826565b34801561035a57600080fd5b506101bf6004803603602081101561037157600080fd5b503561084a565b61012a6004803603604081101561038e57600080fd5b506001600160a01b038135169060200135610860565b3480156103b057600080fd5b50610196600480360360408110156103c757600080fd5b506001600160a01b0381351690602001356108ff565b3480156103e957600080fd5b506101966004803603604081101561040057600080fd5b506001600160a01b03813516906020013561096d565b34801561042257600080fd5b506101bf6004803603602081101561043957600080fd5b5035610981565b34801561044c57600080fd5b506101bf6004803603604081101561046357600080fd5b506001600160a01b03813581169160200135166109de565b34801561048757600080fd5b5061012a6004803603602081101561049e57600080fd5b50356001600160a01b0316610a09565b6004546001600160a01b031681565b60006104d16104ca610a5c565b8484610a60565b50600192915050565b60035490565b60006104ed848484610b4c565b610563846104f9610a5c565b61055e856040518060600160405280602881526020016111a9602891396001600160a01b038a16600090815260026020526040812090610537610a5c565b6001600160a01b03168152602081019190915260400160002054919063ffffffff610cb516565b610a60565b5060019392505050565b60006104d161057a610a5c565b8461055e856002600061058b610a5c565b6001600160a01b03908116825260208083019390935260409182016000908120918c16815292529020549063ffffffff610d4c16565b60646005541115610619576040805162461bcd60e51b815260206004820152601c60248201527f4f6e6c792031303020746f6b656e7320746f206265206d696e74656400000000604482015290519081900360640190fd5b3461062382610981565b1461065f5760405162461bcd60e51b81526004018080602001828103825260318152602001806111786031913960400191505060405180910390fd5b6004546040516001600160a01b03909116903480156108fc02916000818181858888f19350505050158015610698573d6000803e3d6000fd5b506106a38282610dad565b60058054909101905550565b6106b98282610dad565b5050565b6001600160a01b031660009081526001602052604090205490565b6106e0610826565b61071f576040805162461bcd60e51b815260206004820181905260248201526000805160206111d1833981519152604482015290519081900360640190fd5b600080546040516001600160a01b03909116907f8be0079c531659141344cd1fd0a4f28419497f9722a3daafe3b4186f6b6457e0908390a3600080546001600160a01b0319169055565b610771610826565b6107b0576040805162461bcd60e51b815260206004820181905260248201526000805160206111d1833981519152604482015290519081900360640190fd5b6004546107c5906001600160a01b03166106bd565b6064146108035760405162461bcd60e51b81526004018080602001828103825260398152602001806112126039913960400191505060405180910390fd5b6004546001600160a01b0316ff5b60055481565b6000546001600160a01b031690565b600080546001600160a01b031661083b610a5c565b6001600160a01b031614905090565b662386f26fc10000026702c68af0bb1400000190565b610868610826565b6108a7576040805162461bcd60e51b815260206004820181905260248201526000805160206111d1833981519152604482015290519081900360640190fd5b6108b18282610eab565b6004546001600160a01b03166108fc6108c98361084a565b6040518115909202916000818181858888f193505050501580156108f1573d6000803e3d6000fd5b506005805491909103905550565b60006104d161090c610a5c565b8461055e856040518060600160405280602581526020016112946025913960026000610936610a5c565b6001600160a01b03908116825260208083019390935260409182016000908120918d1681529252902054919063ffffffff610cb516565b60006104d161097a610a5c565b8484610b4c565b60008160055460640310156109c75760405162461bcd60e51b815260040180806020018281038252602a81526020018061109b602a913960400191505060405180910390fd5b50662386f26fc10000026702c68af0bb1400000190565b6001600160a01b03918216600090815260026020908152604080832093909416825291909152205490565b610a11610826565b610a50576040805162461bcd60e51b815260206004820181905260248201526000805160206111d1833981519152604482015290519081900360640190fd5b610a5981610fb3565b50565b3390565b6001600160a01b038316610aa55760405162461bcd60e51b81526004018080602001828103825260248152602001806112706024913960400191505060405180910390fd5b6001600160a01b038216610aea5760405162461bcd60e51b81526004018080602001828103825260228152602001806111306022913960400191505060405180910390fd5b6001600160a01b03808416600081815260026020908152604080832094871680845294825291829020859055815185815291517f8c5be1e5ebec7d5bd14f71427d1e84f3dd0314c0f7b2291e5b200ac8c7c3b9259281900390910190a3505050565b6001600160a01b038316610b915760405162461bcd60e51b815260040180806020018281038252602581526020018061124b6025913960400191505060405180910390fd5b6001600160a01b038216610bd65760405162461bcd60e51b81526004018080602001828103825260238152602001806110c56023913960400191505060405180910390fd5b610be1838383611053565b610c2481604051806060016040528060268152602001611152602691396001600160a01b038616600090815260016020526040902054919063ffffffff610cb516565b6001600160a01b038085166000908152600160205260408082209390935590841681522054610c59908263ffffffff610d4c16565b6001600160a01b0380841660008181526001602090815260409182902094909455805185815290519193928716927fddf252ad1be2c89b69c2b068fc378daa952ba7f163c4a11628f55a4df523b3ef92918290030190a3505050565b60008184841115610d445760405162461bcd60e51b81526004018080602001828103825283818151815260200191508051906020019080838360005b83811015610d09578181015183820152602001610cf1565b50505050905090810190601f168015610d365780820380516001836020036101000a031916815260200191505b509250505060405180910390fd5b505050900390565b600082820183811015610da6576040805162461bcd60e51b815260206004820152601b60248201527f536166654d6174683a206164646974696f6e206f766572666c6f770000000000604482015290519081900360640190fd5b9392505050565b6001600160a01b038216610e08576040805162461bcd60e51b815260206004820152601f60248201527f45524332303a206d696e7420746f20746865207a65726f206164647265737300604482015290519081900360640190fd5b610e1460008383611053565b600354610e27908263ffffffff610d4c16565b6003556001600160a01b038216600090815260016020526040902054610e53908263ffffffff610d4c16565b6001600160a01b03831660008181526001602090815260408083209490945583518581529351929391927fddf252ad1be2c89b69c2b068fc378daa952ba7f163c4a11628f55a4df523b3ef9281900390910190a35050565b6001600160a01b038216610ef05760405162461bcd60e51b81526004018080602001828103825260218152602001806111f16021913960400191505060405180910390fd5b610efc82600083611053565b610f3f816040518060600160405280602281526020016110e8602291396001600160a01b038516600090815260016020526040902054919063ffffffff610cb516565b6001600160a01b038316600090815260016020526040902055600354610f6b908263ffffffff61105816565b6003556040805182815290516000916001600160a01b038516917fddf252ad1be2c89b69c2b068fc378daa952ba7f163c4a11628f55a4df523b3ef9181900360200190a35050565b6001600160a01b038116610ff85760405162461bcd60e51b815260040180806020018281038252602681526020018061110a6026913960400191505060405180910390fd5b600080546040516001600160a01b03808516939216917f8be0079c531659141344cd1fd0a4f28419497f9722a3daafe3b4186f6b6457e091a3600080546001600160a01b0319166001600160a01b0392909216919091179055565b505050565b6000610da683836040518060400160405280601e81526020017f536166654d6174683a207375627472616374696f6e206f766572666c6f770000815250610cb556fe45786365656465642074686520616d6f756e74206f66206e436f546f6b656e7320617661696c61626c6545524332303a207472616e7366657220746f20746865207a65726f206164647265737345524332303a206275726e20616d6f756e7420657863656564732062616c616e63654f776e61626c653a206e6577206f776e657220697320746865207a65726f206164647265737345524332303a20617070726f766520746f20746865207a65726f206164647265737345524332303a207472616e7366657220616d6f756e7420657863656564732062616c616e6365456e74657220657861637420616d6f756e7420666f7220746f6b656e7320627579507269636528292066756e6374696f6e45524332303a207472616e7366657220616d6f756e74206578636565647320616c6c6f77616e63654f776e61626c653a2063616c6c6572206973206e6f7420746865206f776e657245524332303a206275726e2066726f6d20746865207a65726f2061646472657373466f72206f776e6572206e6565647320746f206f776e20616c6c20746f6b656e7320746f2064657374726f792074686520636f6e747261637445524332303a207472616e736665722066726f6d20746865207a65726f206164647265737345524332303a20617070726f76652066726f6d20746865207a65726f206164647265737345524332303a2064656372656173656420616c6c6f77616e63652062656c6f77207a65726fa264697066735822122062bb71ab58b7b5540bfd1eb69e0aafeb93ec2565658f17b27acd5a514c1199e964736f6c63430006010033",
    "sourcePath": "/Users/derickkazimoto/Desktop/FinTech_and_Cryptocurrencies/Co's/contracts/Co.sol",
    "compiler": {
        "name": "solc",
        "version": "0.6.1+commit.e6f7d5a4"
    },
    "functionHashes": {
        "allowance(address,address)": "dd62ed3e",
        "approve(address,uint256)": "095ea7b3",
        "balanceOf(address)": "70a08231",
        "burn(address,uint256)": "9dc29fac",
        "buyPrice(uint256)": "c4dbf622",
        "decreaseAllowance(address,uint256)": "a457c2d7",
        "destroy()": "83197ef0",
        "increaseAllowance(address,uint256)": "39509351",
        "isOwner()": "8f32d59b",
        "mint(address,uint256)": "40c10f19",
        "mintedCoins(address,uint256)": "57d6da5f",
        "mintedTokens()": "8d75fe05",
        "minter()": "07546172",
        "owner()": "8da5cb5b",
        "renounceOwnership()": "715018a6",
        "sellPrice(uint256)": "911e279c",
        "totalSupply()": "18160ddd",
        "transfer(address,uint256)": "a9059cbb",
        "transferFrom(address,address,uint256)": "23b872dd",
        "transferOwnership(address)": "f2fde38b"
    },
    "gasEstimates": {
        "creation": {
            "codeDepositCost": "969200",
            "executionCost": "infinite",
            "totalCost": "infinite"
        },
        "external": {
            "": "219",
            "allowance(address,address)": "1338",
            "approve(address,uint256)": "infinite",
            "balanceOf(address)": "1209",
            "burn(address,uint256)": "infinite",
            "buyPrice(uint256)": "infinite",
            "decreaseAllowance(address,uint256)": "infinite",
            "destroy()": "infinite",
            "increaseAllowance(address,uint256)": "infinite",
            "isOwner()": "1147",
            "mint(address,uint256)": "infinite",
            "mintedCoins(address,uint256)": "infinite",
            "mintedTokens()": "1021",
            "minter()": "1061",
            "owner()": "1082",
            "renounceOwnership()": "infinite",
            "sellPrice(uint256)": "340",
            "totalSupply()": "1066",
            "transfer(address,uint256)": "infinite",
            "transferFrom(address,address,uint256)": "infinite",
            "transferOwnership(address)": "infinite"
        }
    }
}