{
    "contractName": "CoShoe",
    "abi": [
        {
            "inputs": [],
            "stateMutability": "nonpayable",
            "type": "constructor"
        },
        {
            "anonymous": false,
            "inputs": [
                {
                    "indexed": true,
                    "internalType": "address",
                    "name": "owner",
                    "type": "address"
                },
                {
                    "indexed": true,
                    "internalType": "address",
                    "name": "spender",
                    "type": "address"
                },
                {
                    "indexed": false,
                    "internalType": "uint256",
                    "name": "value",
                    "type": "uint256"
                }
            ],
            "name": "Approval",
            "type": "event"
        },
        {
            "anonymous": false,
            "inputs": [
                {
                    "indexed": true,
                    "internalType": "address",
                    "name": "previousOwner",
                    "type": "address"
                },
                {
                    "indexed": true,
                    "internalType": "address",
                    "name": "newOwner",
                    "type": "address"
                }
            ],
            "name": "OwnershipTransferred",
            "type": "event"
        },
        {
            "anonymous": false,
            "inputs": [
                {
                    "indexed": true,
                    "internalType": "address",
                    "name": "from",
                    "type": "address"
                },
                {
                    "indexed": true,
                    "internalType": "address",
                    "name": "to",
                    "type": "address"
                },
                {
                    "indexed": false,
                    "internalType": "uint256",
                    "name": "value",
                    "type": "uint256"
                }
            ],
            "name": "Transfer",
            "type": "event"
        },
        {
            "inputs": [
                {
                    "internalType": "address",
                    "name": "owner",
                    "type": "address"
                },
                {
                    "internalType": "address",
                    "name": "spender",
                    "type": "address"
                }
            ],
            "name": "allowance",
            "outputs": [
                {
                    "internalType": "uint256",
                    "name": "",
                    "type": "uint256"
                }
            ],
            "stateMutability": "view",
            "type": "function"
        },
        {
            "inputs": [
                {
                    "internalType": "address",
                    "name": "spender",
                    "type": "address"
                },
                {
                    "internalType": "uint256",
                    "name": "amount",
                    "type": "uint256"
                }
            ],
            "name": "approve",
            "outputs": [
                {
                    "internalType": "bool",
                    "name": "",
                    "type": "bool"
                }
            ],
            "stateMutability": "nonpayable",
            "type": "function"
        },
        {
            "inputs": [
                {
                    "internalType": "address",
                    "name": "account",
                    "type": "address"
                }
            ],
            "name": "balanceOf",
            "outputs": [
                {
                    "internalType": "uint256",
                    "name": "",
                    "type": "uint256"
                }
            ],
            "stateMutability": "view",
            "type": "function"
        },
        {
            "inputs": [
                {
                    "internalType": "address",
                    "name": "account",
                    "type": "address"
                },
                {
                    "internalType": "uint256",
                    "name": "nCoTokens",
                    "type": "uint256"
                }
            ],
            "name": "burn",
            "outputs": [],
            "stateMutability": "payable",
            "type": "function"
        },
        {
            "inputs": [
                {
                    "internalType": "uint256",
                    "name": "nCoTokens",
                    "type": "uint256"
                }
            ],
            "name": "buyPrice",
            "outputs": [
                {
                    "internalType": "uint256",
                    "name": "",
                    "type": "uint256"
                }
            ],
            "stateMutability": "view",
            "type": "function"
        },
        {
            "inputs": [
                {
                    "internalType": "string",
                    "name": "_name",
                    "type": "string"
                },
                {
                    "internalType": "string",
                    "name": "_image",
                    "type": "string"
                }
            ],
            "name": "buyShoe",
            "outputs": [],
            "stateMutability": "payable",
            "type": "function"
        },
        {
            "inputs": [
                {
                    "internalType": "address",
                    "name": "caller",
                    "type": "address"
                }
            ],
            "name": "checkPurchases",
            "outputs": [
                {
                    "internalType": "bool[]",
                    "name": "",
                    "type": "bool[]"
                }
            ],
            "stateMutability": "nonpayable",
            "type": "function"
        },
        {
            "inputs": [
                {
                    "internalType": "address",
                    "name": "spender",
                    "type": "address"
                },
                {
                    "internalType": "uint256",
                    "name": "subtractedValue",
                    "type": "uint256"
                }
            ],
            "name": "decreaseAllowance",
            "outputs": [
                {
                    "internalType": "bool",
                    "name": "",
                    "type": "bool"
                }
            ],
            "stateMutability": "nonpayable",
            "type": "function"
        },
        {
            "inputs": [],
            "name": "destroy",
            "outputs": [],
            "stateMutability": "nonpayable",
            "type": "function"
        },
        {
            "inputs": [
                {
                    "internalType": "address",
                    "name": "spender",
                    "type": "address"
                },
                {
                    "internalType": "uint256",
                    "name": "addedValue",
                    "type": "uint256"
                }
            ],
            "name": "increaseAllowance",
            "outputs": [
                {
                    "internalType": "bool",
                    "name": "",
                    "type": "bool"
                }
            ],
            "stateMutability": "nonpayable",
            "type": "function"
        },
        {
            "inputs": [],
            "name": "isOwner",
            "outputs": [
                {
                    "internalType": "bool",
                    "name": "",
                    "type": "bool"
                }
            ],
            "stateMutability": "view",
            "type": "function"
        },
        {
            "inputs": [
                {
                    "internalType": "address",
                    "name": "account",
                    "type": "address"
                },
                {
                    "internalType": "uint256",
                    "name": "nCoTokens",
                    "type": "uint256"
                }
            ],
            "name": "mint",
            "outputs": [],
            "stateMutability": "payable",
            "type": "function"
        },
        {
            "inputs": [
                {
                    "internalType": "address",
                    "name": "account",
                    "type": "address"
                },
                {
                    "internalType": "uint256",
                    "name": "nCoTokens",
                    "type": "uint256"
                }
            ],
            "name": "mintedCoins",
            "outputs": [],
            "stateMutability": "nonpayable",
            "type": "function"
        },
        {
            "inputs": [],
            "name": "mintedTokens",
            "outputs": [
                {
                    "internalType": "uint256",
                    "name": "",
                    "type": "uint256"
                }
            ],
            "stateMutability": "view",
            "type": "function"
        },
        {
            "inputs": [],
            "name": "minter",
            "outputs": [
                {
                    "internalType": "address payable",
                    "name": "",
                    "type": "address"
                }
            ],
            "stateMutability": "view",
            "type": "function"
        },
        {
            "inputs": [],
            "name": "noOfTokens",
            "outputs": [
                {
                    "internalType": "uint256",
                    "name": "",
                    "type": "uint256"
                }
            ],
            "stateMutability": "view",
            "type": "function"
        },
        {
            "inputs": [],
            "name": "owner",
            "outputs": [
                {
                    "internalType": "address",
                    "name": "",
                    "type": "address"
                }
            ],
            "stateMutability": "view",
            "type": "function"
        },
        {
            "inputs": [],
            "name": "price",
            "outputs": [
                {
                    "internalType": "uint256",
                    "name": "",
                    "type": "uint256"
                }
            ],
            "stateMutability": "view",
            "type": "function"
        },
        {
            "inputs": [],
            "name": "renounceOwnership",
            "outputs": [],
            "stateMutability": "nonpayable",
            "type": "function"
        },
        {
            "inputs": [
                {
                    "internalType": "uint256",
                    "name": "nCoTokens",
                    "type": "uint256"
                }
            ],
            "name": "sellPrice",
            "outputs": [
                {
                    "internalType": "uint256",
                    "name": "",
                    "type": "uint256"
                }
            ],
            "stateMutability": "pure",
            "type": "function"
        },
        {
            "inputs": [
                {
                    "internalType": "uint256",
                    "name": "",
                    "type": "uint256"
                }
            ],
            "name": "shoe",
            "outputs": [
                {
                    "internalType": "address",
                    "name": "owner",
                    "type": "address"
                },
                {
                    "internalType": "string",
                    "name": "name",
                    "type": "string"
                },
                {
                    "internalType": "string",
                    "name": "image",
                    "type": "string"
                },
                {
                    "internalType": "bool",
                    "name": "sold",
                    "type": "bool"
                }
            ],
            "stateMutability": "view",
            "type": "function"
        },
        {
            "inputs": [],
            "name": "shoesSold",
            "outputs": [
                {
                    "internalType": "uint256",
                    "name": "",
                    "type": "uint256"
                }
            ],
            "stateMutability": "view",
            "type": "function"
        },
        {
            "inputs": [
                {
                    "internalType": "address",
                    "name": "",
                    "type": "address"
                }
            ],
            "name": "tokens",
            "outputs": [
                {
                    "internalType": "uint256",
                    "name": "",
                    "type": "uint256"
                }
            ],
            "stateMutability": "view",
            "type": "function"
        },
        {
            "inputs": [],
            "name": "totalSupply",
            "outputs": [
                {
                    "internalType": "uint256",
                    "name": "",
                    "type": "uint256"
                }
            ],
            "stateMutability": "view",
            "type": "function"
        },
        {
            "inputs": [
                {
                    "internalType": "address",
                    "name": "recipient",
                    "type": "address"
                },
                {
                    "internalType": "uint256",
                    "name": "amount",
                    "type": "uint256"
                }
            ],
            "name": "transfer",
            "outputs": [
                {
                    "internalType": "bool",
                    "name": "",
                    "type": "bool"
                }
            ],
            "stateMutability": "nonpayable",
            "type": "function"
        },
        {
            "inputs": [
                {
                    "internalType": "address",
                    "name": "sender",
                    "type": "address"
                },
                {
                    "internalType": "address",
                    "name": "recipient",
                    "type": "address"
                },
                {
                    "internalType": "uint256",
                    "name": "amount",
                    "type": "uint256"
                }
            ],
            "name": "transferFrom",
            "outputs": [
                {
                    "internalType": "bool",
                    "name": "",
                    "type": "bool"
                }
            ],
            "stateMutability": "nonpayable",
            "type": "function"
        },
        {
            "inputs": [
                {
                    "internalType": "address",
                    "name": "newOwner",
                    "type": "address"
                }
            ],
            "name": "transferOwnership",
            "outputs": [],
            "stateMutability": "nonpayable",
            "type": "function"
        }
    ],
    "bytecode": "608060405260006005556706f05b59d3b20000600755600060085534801561002657600080fd5b50600061003a6001600160e01b0361010a16565b600080546001600160a01b0319166001600160a01b0383169081178255604051929350917f8be0079c531659141344cd1fd0a4f28419497f9722a3daafe3b4186f6b6457e0908290a35060048054336001600160a01b031991821681179091168117918290556001600160a01b03909116146100e75760405162461bcd60e51b8152600401808060200182810382526026815260200180611d226026913960400191505060405180910390fd5b6004546001600160a01b031660009081526006602052604090206064905561010e565b3390565b611c058061011d6000396000f3fe60806040526004361061019c5760003560e01c80638d75fe05116100ec578063a9059cbb1161008a578063c4dbf62211610064578063c4dbf622146107a8578063dd62ed3e146107d2578063e48603391461080d578063f2fde38b146108405761019c565b8063a9059cbb146106d7578063aeb85bbc14610710578063c141e8eb146107935761019c565b8063911e279c116100c6578063911e279c146106335780639dc29fac1461065d578063a035b1fe14610689578063a457c2d71461069e5761019c565b80638d75fe05146105f45780638da5cb5b146106095780638f32d59b1461061e5761019c565b8063395093511161015957806357d6da5f1161013357806357d6da5f1461055e57806370a0823114610597578063715018a6146105ca57806383197ef0146105df5761019c565b806339509351146103ca57806340c10f1914610403578063540a2f4f146104315761019c565b806307546172146101a1578063095ea7b3146101d25780630e4c77561461021f57806318160ddd1461034b57806323b872dd1461037257806336e9b344146103b5575b600080fd5b3480156101ad57600080fd5b506101b6610873565b604080516001600160a01b039092168252519081900360200190f35b3480156101de57600080fd5b5061020b600480360360408110156101f557600080fd5b506001600160a01b038135169060200135610882565b604080519115158252519081900360200190f35b34801561022b57600080fd5b506102496004803603602081101561024257600080fd5b503561089f565b60405180856001600160a01b03166001600160a01b03168152602001806020018060200184151515158152602001838103835286818151815260200191508051906020019080838360005b838110156102ac578181015183820152602001610294565b50505050905090810190601f1680156102d95780820380516001836020036101000a031916815260200191505b50838103825285518152855160209182019187019080838360005b8381101561030c5781810151838201526020016102f4565b50505050905090810190601f1680156103395780820380516001836020036101000a031916815260200191505b50965050505050505060405180910390f35b34801561035757600080fd5b506103606109fe565b60408051918252519081900360200190f35b34801561037e57600080fd5b5061020b6004803603606081101561039557600080fd5b506001600160a01b03813581169160208101359091169060400135610a05565b3480156103c157600080fd5b50610360610a92565b3480156103d657600080fd5b5061020b600480360360408110156103ed57600080fd5b506001600160a01b038135169060200135610ab0565b61042f6004803603604081101561041957600080fd5b506001600160a01b038135169060200135610b04565b005b61042f6004803603604081101561044757600080fd5b81019060208101813564010000000081111561046257600080fd5b82018360208201111561047457600080fd5b8035906020019184600183028401116401000000008311171561049657600080fd5b91908080601f01602080910402602001604051908101604052809392919081815260200183838082843760009201919091525092959493602081019350359150506401000000008111156104e957600080fd5b8201836020820111156104fb57600080fd5b8035906020019184600183028401116401000000008311171561051d57600080fd5b91908080601f016020809104026020016040519081016040528093929190818152602001838380828437600092019190915250929550610bf2945050505050565b34801561056a57600080fd5b5061042f6004803603604081101561058157600080fd5b506001600160a01b038135169060200135610dbd565b3480156105a357600080fd5b50610360600480360360208110156105ba57600080fd5b50356001600160a01b0316610dcb565b3480156105d657600080fd5b5061042f610de6565b3480156105eb57600080fd5b5061042f610e77565b34801561060057600080fd5b50610360610f1f565b34801561061557600080fd5b506101b6610f25565b34801561062a57600080fd5b5061020b610f34565b34801561063f57600080fd5b506103606004803603602081101561065657600080fd5b5035610f58565b61042f6004803603604081101561067357600080fd5b506001600160a01b038135169060200135610f6e565b34801561069557600080fd5b5061036061100d565b3480156106aa57600080fd5b5061020b600480360360408110156106c157600080fd5b506001600160a01b038135169060200135611013565b3480156106e357600080fd5b5061020b600480360360408110156106fa57600080fd5b506001600160a01b038135169060200135611081565b34801561071c57600080fd5b506107436004803603602081101561073357600080fd5b50356001600160a01b0316611095565b60408051602080825283518183015283519192839290830191858101910280838360005b8381101561077f578181015183820152602001610767565b505050509050019250505060405180910390f35b34801561079f57600080fd5b506103606111c6565b3480156107b457600080fd5b50610360600480360360208110156107cb57600080fd5b50356111cc565b3480156107de57600080fd5b50610360600480360360408110156107f557600080fd5b506001600160a01b0381358116916020013516611229565b34801561081957600080fd5b506103606004803603602081101561083057600080fd5b50356001600160a01b0316611254565b34801561084c57600080fd5b5061042f6004803603602081101561086357600080fd5b50356001600160a01b0316611266565b6004546001600160a01b031681565b600061089661088f6112b9565b84846112bd565b50600192915050565b600981815481106108ac57fe5b600091825260209182902060049091020180546001808301805460408051601f60026000199685161561010002969096019093169490940491820187900487028401870190528083526001600160a01b0390931695509293909291908301828280156109595780601f1061092e57610100808354040283529160200191610959565b820191906000526020600020905b81548152906001019060200180831161093c57829003601f168201915b50505060028085018054604080516020601f60001961010060018716150201909416959095049283018590048502810185019091528181529596959450909250908301828280156109eb5780601f106109c0576101008083540402835291602001916109eb565b820191906000526020600020905b8154815290600101906020018083116109ce57829003601f168201915b5050506003909301549192505060ff1684565b6003545b90565b6000610a128484846113a9565b610a8884610a1e6112b9565b610a8385604051806060016040528060288152602001611a9e602891396001600160a01b038a16600090815260026020526040812090610a5c6112b9565b6001600160a01b03168152602081019190915260400160002054919063ffffffff61151216565b6112bd565b5060019392505050565b6004546001600160a01b031660009081526006602052604090205490565b6000610896610abd6112b9565b84610a838560026000610ace6112b9565b6001600160a01b03908116825260208083019390935260409182016000908120918c16815292529020549063ffffffff6115a916565b60646005541115610b5c576040805162461bcd60e51b815260206004820152601c60248201527f4f6e6c792031303020746f6b656e7320746f206265206d696e74656400000000604482015290519081900360640190fd5b34610b66826111cc565b14610ba25760405162461bcd60e51b8152600401808060200182810382526031815260200180611a6d6031913960400191505060405180910390fd5b6004546040516001600160a01b03909116903480156108fc02916000818181858888f19350505050158015610bdb573d6000803e3d6000fd5b50610be6828261160a565b60058054909101905550565b60646008541115610c3e576040805162461bcd60e51b8152602060048201526011602482015270536f6c64204f7574206f662053686f657360781b604482015290519081900360640190fd5b6007543414610c94576040805162461bcd60e51b815260206004820152601c60248201527f5072696365206f6620612073686f6520697320302e3520657468657200000000604482015290519081900360640190fd5b60408051608081018252338152602080820185815292820184905260016060830181905260098054918201815560005282517f6e1540171b6c0c960b71a7020d9f60077f6af931a8bbf590da0223dacf75c7af600490920291820180546001600160a01b0319166001600160a01b0390921691909117815593518051939493610d46937f6e1540171b6c0c960b71a7020d9f60077f6af931a8bbf590da0223dacf75c7b09093019291909101906118f7565b5060408201518051610d629160028401916020909101906118f7565b50606091909101516003909101805460ff191691151591909117905550506004546001600160a01b03166000908152600660205260408082208054600019019055338252902080546001908101909155600880549091019055565b610dc7828261160a565b5050565b6001600160a01b031660009081526001602052604090205490565b610dee610f34565b610e2d576040805162461bcd60e51b81526020600482018190526024820152600080516020611ac6833981519152604482015290519081900360640190fd5b600080546040516001600160a01b03909116907f8be0079c531659141344cd1fd0a4f28419497f9722a3daafe3b4186f6b6457e0908390a3600080546001600160a01b0319169055565b610e7f610f34565b610ebe576040805162461bcd60e51b81526020600482018190526024820152600080516020611ac6833981519152604482015290519081900360640190fd5b600454610ed3906001600160a01b0316610dcb565b606414610f115760405162461bcd60e51b8152600401808060200182810382526039815260200180611b076039913960400191505060405180910390fd5b6004546001600160a01b0316ff5b60055481565b6000546001600160a01b031690565b600080546001600160a01b0316610f496112b9565b6001600160a01b031614905090565b662386f26fc10000026702c68af0bb1400000190565b610f76610f34565b610fb5576040805162461bcd60e51b81526020600482018190526024820152600080516020611ac6833981519152604482015290519081900360640190fd5b610fbf8282611708565b6004546001600160a01b03166108fc610fd783610f58565b6040518115909202916000818181858888f19350505050158015610fff573d6000803e3d6000fd5b506005805491909103905550565b60075481565b60006108966110206112b9565b84610a8385604051806060016040528060258152602001611bab602591396002600061104a6112b9565b6001600160a01b03908116825260208083019390935260409182016000908120918d1681529252902054919063ffffffff61151216565b600061089661108e6112b9565b84846113a9565b60606001600160a01b03821633146110de5760405162461bcd60e51b8152600401808060200182810382526022815260200180611b896022913960400191505060405180910390fd5b606060085460405190808252806020026020018201604052801561110c578160200160208202803883390190505b50905060005b6008548110156111bf5760006009828154811061112b57fe5b6000918252602090912060049091020180549091506001600160a01b03868116911614156111885760038101805460ff19166001908117909155835184908490811061117357fe5b911515602092830291909101909101526111b6565b60038101805460ff1916905582516000908490849081106111a557fe5b911515602092830291909101909101525b50600101611112565b5092915050565b60085481565b60008160055460640310156112125760405162461bcd60e51b815260040180806020018281038252602a815260200180611990602a913960400191505060405180910390fd5b50662386f26fc10000026702c68af0bb1400000190565b6001600160a01b03918216600090815260026020908152604080832093909416825291909152205490565b60066020526000908152604090205481565b61126e610f34565b6112ad576040805162461bcd60e51b81526020600482018190526024820152600080516020611ac6833981519152604482015290519081900360640190fd5b6112b681611810565b50565b3390565b6001600160a01b0383166113025760405162461bcd60e51b8152600401808060200182810382526024815260200180611b656024913960400191505060405180910390fd5b6001600160a01b0382166113475760405162461bcd60e51b8152600401808060200182810382526022815260200180611a256022913960400191505060405180910390fd5b6001600160a01b03808416600081815260026020908152604080832094871680845294825291829020859055815185815291517f8c5be1e5ebec7d5bd14f71427d1e84f3dd0314c0f7b2291e5b200ac8c7c3b9259281900390910190a3505050565b6001600160a01b0383166113ee5760405162461bcd60e51b8152600401808060200182810382526025815260200180611b406025913960400191505060405180910390fd5b6001600160a01b0382166114335760405162461bcd60e51b81526004018080602001828103825260238152602001806119ba6023913960400191505060405180910390fd5b61143e8383836118b0565b61148181604051806060016040528060268152602001611a47602691396001600160a01b038616600090815260016020526040902054919063ffffffff61151216565b6001600160a01b0380851660009081526001602052604080822093909355908416815220546114b6908263ffffffff6115a916565b6001600160a01b0380841660008181526001602090815260409182902094909455805185815290519193928716927fddf252ad1be2c89b69c2b068fc378daa952ba7f163c4a11628f55a4df523b3ef92918290030190a3505050565b600081848411156115a15760405162461bcd60e51b81526004018080602001828103825283818151815260200191508051906020019080838360005b8381101561156657818101518382015260200161154e565b50505050905090810190601f1680156115935780820380516001836020036101000a031916815260200191505b509250505060405180910390fd5b505050900390565b600082820183811015611603576040805162461bcd60e51b815260206004820152601b60248201527f536166654d6174683a206164646974696f6e206f766572666c6f770000000000604482015290519081900360640190fd5b9392505050565b6001600160a01b038216611665576040805162461bcd60e51b815260206004820152601f60248201527f45524332303a206d696e7420746f20746865207a65726f206164647265737300604482015290519081900360640190fd5b611671600083836118b0565b600354611684908263ffffffff6115a916565b6003556001600160a01b0382166000908152600160205260409020546116b0908263ffffffff6115a916565b6001600160a01b03831660008181526001602090815260408083209490945583518581529351929391927fddf252ad1be2c89b69c2b068fc378daa952ba7f163c4a11628f55a4df523b3ef9281900390910190a35050565b6001600160a01b03821661174d5760405162461bcd60e51b8152600401808060200182810382526021815260200180611ae66021913960400191505060405180910390fd5b611759826000836118b0565b61179c816040518060600160405280602281526020016119dd602291396001600160a01b038516600090815260016020526040902054919063ffffffff61151216565b6001600160a01b0383166000908152600160205260409020556003546117c8908263ffffffff6118b516565b6003556040805182815290516000916001600160a01b038516917fddf252ad1be2c89b69c2b068fc378daa952ba7f163c4a11628f55a4df523b3ef9181900360200190a35050565b6001600160a01b0381166118555760405162461bcd60e51b81526004018080602001828103825260268152602001806119ff6026913960400191505060405180910390fd5b600080546040516001600160a01b03808516939216917f8be0079c531659141344cd1fd0a4f28419497f9722a3daafe3b4186f6b6457e091a3600080546001600160a01b0319166001600160a01b0392909216919091179055565b505050565b600061160383836040518060400160405280601e81526020017f536166654d6174683a207375627472616374696f6e206f766572666c6f770000815250611512565b828054600181600116156101000203166002900490600052602060002090601f016020900481019282601f1061193857805160ff1916838001178555611965565b82800160010185558215611965579182015b8281111561196557825182559160200191906001019061194a565b50611971929150611975565b5090565b610a0291905b80821115611971576000815560010161197b56fe45786365656465642074686520616d6f756e74206f66206e436f546f6b656e7320617661696c61626c6545524332303a207472616e7366657220746f20746865207a65726f206164647265737345524332303a206275726e20616d6f756e7420657863656564732062616c616e63654f776e61626c653a206e6577206f776e657220697320746865207a65726f206164647265737345524332303a20617070726f766520746f20746865207a65726f206164647265737345524332303a207472616e7366657220616d6f756e7420657863656564732062616c616e6365456e74657220657861637420616d6f756e7420666f7220746f6b656e7320627579507269636528292066756e6374696f6e45524332303a207472616e7366657220616d6f756e74206578636565647320616c6c6f77616e63654f776e61626c653a2063616c6c6572206973206e6f7420746865206f776e657245524332303a206275726e2066726f6d20746865207a65726f2061646472657373466f72206f776e6572206e6565647320746f206f776e20616c6c20746f6b656e7320746f2064657374726f792074686520636f6e747261637445524332303a207472616e736665722066726f6d20746865207a65726f206164647265737345524332303a20617070726f76652066726f6d20746865207a65726f2061646472657373636865636b50757263686173657320666f722063616c6c65722066756e6374696f6e45524332303a2064656372656173656420616c6c6f77616e63652062656c6f77207a65726fa2646970667358221220fa0fe38a4e8e654ec77664cb3a32612e04f8ad6989447e4e4140d9b7953f597964736f6c6343000601003346756e6374696f6e2063616e206f6e6c792062652063616c6c6564206279206d696e7465722e",
    "sourcePath": "/Users/derickkazimoto/Desktop/FinTech_and_Cryptocurrencies/Co's/contracts/CoShoe.sol",
    "compiler": {
        "name": "solc",
        "version": "0.6.1+commit.e6f7d5a4"
    },
    "functionHashes": {
        "allowance(address,address)": "dd62ed3e",
        "approve(address,uint256)": "095ea7b3",
        "balanceOf(address)": "70a08231",
        "burn(address,uint256)": "9dc29fac",
        "buyPrice(uint256)": "c4dbf622",
        "buyShoe(string,string)": "540a2f4f",
        "checkPurchases(address)": "aeb85bbc",
        "decreaseAllowance(address,uint256)": "a457c2d7",
        "destroy()": "83197ef0",
        "increaseAllowance(address,uint256)": "39509351",
        "isOwner()": "8f32d59b",
        "mint(address,uint256)": "40c10f19",
        "mintedCoins(address,uint256)": "57d6da5f",
        "mintedTokens()": "8d75fe05",
        "minter()": "07546172",
        "noOfTokens()": "36e9b344",
        "owner()": "8da5cb5b",
        "price()": "a035b1fe",
        "renounceOwnership()": "715018a6",
        "sellPrice(uint256)": "911e279c",
        "shoe(uint256)": "0e4c7756",
        "shoesSold()": "c141e8eb",
        "tokens(address)": "e4860339",
        "totalSupply()": "18160ddd",
        "transfer(address,uint256)": "a9059cbb",
        "transferFrom(address,address,uint256)": "23b872dd",
        "transferOwnership(address)": "f2fde38b"
    },
    "gasEstimates": {
        "creation": {
            "codeDepositCost": "1434600",
            "executionCost": "infinite",
            "totalCost": "infinite"
        },
        "external": {
            "allowance(address,address)": "1316",
            "approve(address,uint256)": "infinite",
            "balanceOf(address)": "1209",
            "burn(address,uint256)": "infinite",
            "buyPrice(uint256)": "infinite",
            "buyShoe(string,string)": "infinite",
            "checkPurchases(address)": "infinite",
            "decreaseAllowance(address,uint256)": "infinite",
            "destroy()": "infinite",
            "increaseAllowance(address,uint256)": "infinite",
            "isOwner()": "1170",
            "mint(address,uint256)": "infinite",
            "mintedCoins(address,uint256)": "infinite",
            "mintedTokens()": "1044",
            "minter()": "1061",
            "noOfTokens()": "2019",
            "owner()": "1105",
            "price()": "1087",
            "renounceOwnership()": "infinite",
            "sellPrice(uint256)": "296",
            "shoe(uint256)": "infinite",
            "shoesSold()": "1087",
            "tokens(address)": "1212",
            "totalSupply()": "1089",
            "transfer(address,uint256)": "infinite",
            "transferFrom(address,address,uint256)": "infinite",
            "transferOwnership(address)": "infinite"
        }
    }
}