{
  "contractName": "CoShoe",
  "abi": [
    {
      "inputs": [],
      "stateMutability": "nonpayable",
      "type": "constructor"
    },
    {
      "inputs": [],
      "name": "minter",
      "outputs": [
        {
          "internalType": "address",
          "name": "",
          "type": "address"
        }
      ],
      "stateMutability": "view",
      "type": "function",
      "constant": true
    },
    {
      "inputs": [],
      "name": "price",
      "outputs": [
        {
          "internalType": "uint256",
          "name": "",
          "type": "uint256"
        }
      ],
      "stateMutability": "view",
      "type": "function",
      "constant": true
    },
    {
      "inputs": [
        {
          "internalType": "uint256",
          "name": "",
          "type": "uint256"
        }
      ],
      "name": "shoe",
      "outputs": [
        {
          "internalType": "address",
          "name": "owner",
          "type": "address"
        },
        {
          "internalType": "string",
          "name": "name",
          "type": "string"
        },
        {
          "internalType": "string",
          "name": "image",
          "type": "string"
        },
        {
          "internalType": "bool",
          "name": "sold",
          "type": "bool"
        }
      ],
      "stateMutability": "view",
      "type": "function",
      "constant": true
    },
    {
      "inputs": [],
      "name": "shoesSold",
      "outputs": [
        {
          "internalType": "uint256",
          "name": "",
          "type": "uint256"
        }
      ],
      "stateMutability": "view",
      "type": "function",
      "constant": true
    },
    {
      "inputs": [
        {
          "internalType": "address",
          "name": "",
          "type": "address"
        }
      ],
      "name": "tokens",
      "outputs": [
        {
          "internalType": "uint256",
          "name": "",
          "type": "uint256"
        }
      ],
      "stateMutability": "view",
      "type": "function",
      "constant": true
    },
    {
      "inputs": [],
      "name": "noOfTokens",
      "outputs": [
        {
          "internalType": "uint256",
          "name": "",
          "type": "uint256"
        }
      ],
      "stateMutability": "view",
      "type": "function",
      "constant": true
    },
    {
      "inputs": [
        {
          "internalType": "string",
          "name": "_name",
          "type": "string"
        },
        {
          "internalType": "string",
          "name": "_image",
          "type": "string"
        }
      ],
      "name": "buyShoe",
      "outputs": [],
      "stateMutability": "payable",
      "type": "function",
      "payable": true
    },
    {
      "inputs": [
        {
          "internalType": "address",
          "name": "caller",
          "type": "address"
        }
      ],
      "name": "checkPurchases",
      "outputs": [
        {
          "internalType": "bool[]",
          "name": "",
          "type": "bool[]"
        }
      ],
      "stateMutability": "nonpayable",
      "type": "function"
    }
  ],
  "bytecode": "0x60806040526706f05b59d3b20000600255600060035534801561002157600080fd5b50336000806101000a81548173ffffffffffffffffffffffffffffffffffffffff021916908373ffffffffffffffffffffffffffffffffffffffff1602179055506000809054906101000a900473ffffffffffffffffffffffffffffffffffffffff1673ffffffffffffffffffffffffffffffffffffffff163373ffffffffffffffffffffffffffffffffffffffff1614610107576040517f08c379a0000000000000000000000000000000000000000000000000000000008152600401808060200182810382526026815260200180610e7a6026913960400191505060405180910390fd5b6064600160008060009054906101000a900473ffffffffffffffffffffffffffffffffffffffff1673ffffffffffffffffffffffffffffffffffffffff1673ffffffffffffffffffffffffffffffffffffffff16815260200190815260200160002081905550610cfe8061017c6000396000f3fe60806040526004361061007b5760003560e01c8063a035b1fe1161004e578063a035b1fe146103b2578063aeb85bbc146103dd578063c141e8eb14610483578063e4860339146104ae5761007b565b806307546172146100805780630e4c7756146100d757806336e9b34414610235578063540a2f4f14610260575b600080fd5b34801561008c57600080fd5b50610095610513565b604051808273ffffffffffffffffffffffffffffffffffffffff1673ffffffffffffffffffffffffffffffffffffffff16815260200191505060405180910390f35b3480156100e357600080fd5b50610110600480360360208110156100fa57600080fd5b8101908080359060200190929190505050610538565b604051808573ffffffffffffffffffffffffffffffffffffffff1673ffffffffffffffffffffffffffffffffffffffff168152602001806020018060200184151515158152602001838103835286818151815260200191508051906020019080838360005b83811015610190578082015181840152602081019050610175565b50505050905090810190601f1680156101bd5780820380516001836020036101000a031916815260200191505b50838103825285818151815260200191508051906020019080838360005b838110156101f65780820151818401526020810190506101db565b50505050905090810190601f1680156102235780820380516001836020036101000a031916815260200191505b50965050505050505060405180910390f35b34801561024157600080fd5b5061024a6106d2565b6040518082815260200191505060405180910390f35b6103b06004803603604081101561027657600080fd5b810190808035906020019064010000000081111561029357600080fd5b8201836020820111156102a557600080fd5b803590602001918460018302840111640100000000831117156102c757600080fd5b91908080601f016020809104026020016040519081016040528093929190818152602001838380828437600081840152601f19601f8201169050808301925050505050505091929192908035906020019064010000000081111561032a57600080fd5b82018360208201111561033c57600080fd5b8035906020019184600183028401116401000000008311171561035e57600080fd5b91908080601f016020809104026020016040519081016040528093929190818152602001838380828437600081840152601f19601f82011690508083019250505050505050919291929050505061073a565b005b3480156103be57600080fd5b506103c7610a02565b6040518082815260200191505060405180910390f35b3480156103e957600080fd5b5061042c6004803603602081101561040057600080fd5b81019080803573ffffffffffffffffffffffffffffffffffffffff169060200190929190505050610a08565b6040518080602001828103825283818151815260200191508051906020019060200280838360005b8381101561046f578082015181840152602081019050610454565b505050509050019250505060405180910390f35b34801561048f57600080fd5b50610498610be3565b6040518082815260200191505060405180910390f35b3480156104ba57600080fd5b506104fd600480360360208110156104d157600080fd5b81019080803573ffffffffffffffffffffffffffffffffffffffff169060200190929190505050610be9565b6040518082815260200191505060405180910390f35b6000809054906101000a900473ffffffffffffffffffffffffffffffffffffffff1681565b6004818154811061054557fe5b90600052602060002090600402016000915090508060000160009054906101000a900473ffffffffffffffffffffffffffffffffffffffff1690806001018054600181600116156101000203166002900480601f0160208091040260200160405190810160405280929190818152602001828054600181600116156101000203166002900480156106175780601f106105ec57610100808354040283529160200191610617565b820191906000526020600020905b8154815290600101906020018083116105fa57829003601f168201915b505050505090806002018054600181600116156101000203166002900480601f0160208091040260200160405190810160405280929190818152602001828054600181600116156101000203166002900480156106b55780601f1061068a576101008083540402835291602001916106b5565b820191906000526020600020905b81548152906001019060200180831161069857829003601f168201915b5050505050908060030160009054906101000a900460ff16905084565b6000600160008060009054906101000a900473ffffffffffffffffffffffffffffffffffffffff1673ffffffffffffffffffffffffffffffffffffffff1673ffffffffffffffffffffffffffffffffffffffff16815260200190815260200160002054905090565b6064600354106107b2576040517f08c379a00000000000000000000000000000000000000000000000000000000081526004018080602001828103825260118152602001807f536f6c64204f7574206f662053686f657300000000000000000000000000000081525060200191505060405180910390fd5b6002543414610829576040517f08c379a000000000000000000000000000000000000000000000000000000000815260040180806020018281038252601c8152602001807f5072696365206f6620612073686f6520697320302e352065746865720000000081525060200191505060405180910390fd5b600460405180608001604052803373ffffffffffffffffffffffffffffffffffffffff16815260200184815260200183815260200160011515815250908060018154018082558091505060019003906000526020600020906004020160009091909190915060008201518160000160006101000a81548173ffffffffffffffffffffffffffffffffffffffff021916908373ffffffffffffffffffffffffffffffffffffffff16021790555060208201518160010190805190602001906108f1929190610c01565b50604082015181600201908051906020019061090e929190610c01565b5060608201518160030160006101000a81548160ff021916908315150217905550505060018060008060009054906101000a900473ffffffffffffffffffffffffffffffffffffffff1673ffffffffffffffffffffffffffffffffffffffff1673ffffffffffffffffffffffffffffffffffffffff1681526020019081526020016000206000828254039250508190555060018060003373ffffffffffffffffffffffffffffffffffffffff1673ffffffffffffffffffffffffffffffffffffffff168152602001908152602001600020600082825401925050819055506003600081548092919060010191905055505050565b60025481565b60603373ffffffffffffffffffffffffffffffffffffffff168273ffffffffffffffffffffffffffffffffffffffff1614610a8e576040517f08c379a0000000000000000000000000000000000000000000000000000000008152600401808060200182810382526022815260200180610ca76022913960400191505060405180910390fd5b6060600354604051908082528060200260200182016040528015610ac15781602001602082028038833980820191505090505b50905060008090505b600354811015610bd957600060048281548110610ae357fe5b906000526020600020906004020190508473ffffffffffffffffffffffffffffffffffffffff168160000160009054906101000a900473ffffffffffffffffffffffffffffffffffffffff1673ffffffffffffffffffffffffffffffffffffffff161415610b8d5760018160030160006101000a81548160ff0219169083151502179055506001838381518110610b7657fe5b602002602001019015159081151581525050610bcb565b60008160030160006101000a81548160ff0219169083151502179055506000838381518110610bb857fe5b6020026020010190151590811515815250505b508080600101915050610aca565b5080915050919050565b60035481565b60016020528060005260406000206000915090505481565b828054600181600116156101000203166002900490600052602060002090601f016020900481019282601f10610c4257805160ff1916838001178555610c70565b82800160010185558215610c70579182015b82811115610c6f578251825591602001919060010190610c54565b5b509050610c7d9190610c81565b5090565b610ca391905b80821115610c9f576000816000905550600101610c87565b5090565b9056fe636865636b50757263686173657320666f722063616c6c65722066756e6374696f6ea2646970667358221220c7bc045d2b0ea4a687ab19179da667a846a45a3d5de725aabaa6458abb9d3a5d64736f6c6343000600003346756e6374696f6e2063616e206f6e6c792062652063616c6c6564206279206d696e7465722e",
  "source": "pragma solidity >= 0.5.0;\n\ncontract CoShoe{\n    \n    struct Shoe{\n        address owner;\n        string name;\n        string image;\n        bool sold;\n    }\n    \n    address public minter;\n    mapping(address => uint) public tokens;\n    \n    uint public price = 0.5 ether;  // change it to gwei;\n    uint public shoesSold = 0;\n    Shoe[] public shoe; //relate struct with tokens\n\n    constructor() public{\n        minter = msg.sender;\n        require(msg.sender == minter, \"Function can only be called by minter.\");\n        //require(amount == 100, \"100 CoTokens\");\n        tokens[minter] = 100;\n    }\n\n    function noOfTokens() public view returns (uint){\n        return tokens[minter];\n    }\n\n    function buyShoe(string memory _name, string memory _image) public payable{\n        //This function can only mint 100 tokens\n        require(shoesSold < 100, \"Sold Out of Shoes\");\n        require(msg.value == price, \"Price of a shoe is 0.5 ether\");\n        //A buyer choses the name and image of the shoe by putting the below inputs\n        shoe.push(Shoe({\n            owner: msg.sender,\n            name: _name,\n            image: _image,\n            sold: true\n        }));\n        //The minter issues a token to the buyer\n        tokens[minter] -= 1;\n        //The buyer(address) gains the shoe token\n        tokens[msg.sender] += 1;\n        //A pair of shoe is sold\n        shoesSold++;\n    }\n    function checkPurchases(address caller) public returns(bool[] memory) {\n        require(caller == msg.sender,\"checkPurchases for caller function\");\n        bool[] memory trueBool = new bool[](shoesSold);\n\n       for (uint i=0;i<shoesSold;i++) {\n           Shoe storage shoes = shoe[i];\n           if (shoes.owner == caller){\n               shoes.sold = true;\n               trueBool[i] = true;\n           }\n           else{\n               shoes.sold = false;\n               trueBool[i] = false;\n           }\n       }\n       return trueBool;\n    }\n}",
  "sourcePath": "/Users/derickkazimoto/Desktop/FinTech_and_Cryptocurrencies/Co's/contracts/CoShoe.sol",
  "compiler": {
    "name": "solc",
    "version": "0.6.0+commit.26b70077.Emscripten.clang"
  },
  "schemaVersion": "3.0.23",
  "updatedAt": "2020-03-08T04:04:08.707Z",
  "networkType": "ethereum",
  "devdoc": {
    "methods": {}
  },
  "userdoc": {
    "methods": {}
  }
}